:020000040800F2
:10000000282C002081020008FB390008A5320008D6
:10001000F9390008792F00088D460008000000001B
:10002000000000000000000000000000D93B0008B4
:10003000E92F000800000000813A0008ED3C0008AC
:100040009B0200089B0200089B0200089B0200081C
:100050009B0200089B0200089B0200089B0200080C
:100060009B0200089B0200089B0200089B020008FC
:100070009B0200089B0200089B0200089B020008EC
:100080009B0200089B0200089B0200089B020008DC
:100090009B0200089B0200089B020008F130000848
:1000A0009B020008C93D00089B0200089B02000853
:1000B000613E0008693F0008D53F00089B02000828
:1000C0009B0200089B0200089B0200089B0200089C
:1000D0009B0200089B020008D14300089B02000815
:1000E0009B0200089B0200089B0200089B0200087C
:1000F0009B0200089B0200089B0200089B0200086C
:100100009B0200089B0200089B0200089B0200085B
:100110009B0200089B0200089B0200089B0200084B
:100120009B0200089B0200089B0200089B0200083B
:1001300000F002F800F094F80AA090E8000C824465
:100140008344AAF10107DA4501D100F089F8AFF242
:10015000090EBAE80F0013F0010F18BFFB1A43F0A5
:10016000010318477093000090930000103A24BFD9
:1001700078C878C1FAD8520724BF30C830C144BF0C
:1001800004680C607047000000230024002500264E
:10019000103A28BF78C1FBD8520728BF30C148BFEA
:1001A0000B6070476E2900F09C85702900F03B823F
:1001B000662909F01B80652909F01880672909F074
:1001C00015806129AFF3008003681B0A28BF41F046
:1001D0008001692900F0AC81642900F0A9817529AA
:1001E00000F0A6816F2901F09080782900F0078245
:1001F000E92901F02B80E42901F02880F52901F09C
:100200002580EF2901F08D80F82900F0068203682F
:10021000DB0928BF41F08001632900F0AC87732916
:1002200000F0B187E32901F04984F32901F04E84FD
:10023000002070471FB59DE8030000F0B1FC01F0FD
:1002400083FB04000020002108F0BEFB401C60601E
:100250000020002108F0CEFBE0601FBD10B510BDEE
:1002600001F08CFE1146FFF7E5FF05F047FB02F0B9
:10027000DFF803B4FFF7F2FF03BC02F00FF9000050
:100280000948804709480047FEE7FEE7FEE7FEE72A
:10029000FEE7FEE7FEE7FEE7FEE7FEE70448054966
:1002A000054A064B70470000F13C00083101000888
:1002B00028220020282C0020282600202826002084
:1002C00070B5064600F050FC056806F10B0020F002
:1002D0000704B4429CBF002070BD2B466A68BAB1C7
:1002E0001068A04210D304F1080188423CBF506856
:1002F000586007D35168101941601168091B0160EB
:1003000058601460101D70BD13465268002AE7D172
:100310002146284600F030FC0028DED170BD70B5C3
:100320000446051F00F020FC0068002C14BF446840
:1003300070BD002C18BFAC423CBF20466468F8D3A7
:1003400001680A18AA4218BF456003D12A68054609
:100350001144016028684119A1421CBF6C6070BD46
:100360006168696021680844286070BD70B50D46F9
:100370000646041F00F0F8FBD0F800C0C5B1E6B196
:1003800005F10B0020F00703AB423CBF002070BD1D
:100390002068984238BFDCF8042013D3C11A08291A
:1003A0002FD3E01840F8041B2360FFF7B8FF28E0C4
:1003B0003046FFF7B4FF002070BD2846BDE870400E
:1003C000FFF77EBF002A18BFA2423CBF9446526886
:1003D000F8D30119914216D111680844984212D3FA
:1003E000C11A08293CBF2060506808D35168E01842
:1003F0004160216812681144C91A01602360CCF879
:100400000400201D70BD181FFFF75AFF050007D01C
:1004100021680A1F211D00F0D8FA201DFFF77FFF79
:10042000284670BD10B5044600F096FB0068005DDC
:10043000C00602D504F1200010BD204610BD00000A
:100440001CB50C46064B7B4469460090204600F0E4
:1004500070FE04460020694600F07EFE20461CBD6A
:100460000F0D00000FB41CB5084B06AA7B4469466B
:100470000090059800F05DFE04460020694600F0FB
:100480006BFE20461CBC5DF814FB0000E90C00006C
:1004900070B5044685690068C10601D5302600E0C4
:1004A0002026C00707D070BDD4E90121304690470F
:1004B000206A401C20626D1EF6D570BD70B50446E2
:1004C00085690078C00707D170BDD4E901212020DB
:1004D0009047206A401C20626D1EF6D570BD70B535
:1004E0000C460546012A05D02878800600D5EA6921
:1004F000002302E0012305E05B1C934202D2E05C92
:100500000028F9D1A869E618C01AA861286A184419
:1005100028622846FFF7BCFF04E0D5E9012114F862
:10052000010B9047B442F8D32846FFF7C7FF70BDD0
:100530002DE9F0410646002410687529314616A5BC
:1005400010D000F063FB002802DA404213A507E058
:1005500031688A0701D512A502E0490704D511A523
:10056000012401E000F05BFB00210A2206F12407D0
:1005700009E0B0FBF2FCB0FBF2F302FB1C003030F0
:1005800078541846491C0028F3D123462A463046A1
:10059000BDE8F04100F04CBB000000002D00000061
:1005A0002B00000020000000F0B40D460188090572
:1005B00002D5214C7C4402E01F4C7C440E340021C7
:1005C00000F1240608E002F00F071209E75D42EA95
:1005D00003721B097754491C52EA0307F3D10278CE
:1005E0000023120704D5702D06D009B1022311345F
:1005F0002246F0BC00F01CBB01231034F8E770B5B4
:1006000004460D462146106800F009FB02462946C3
:100610002046BDE870400023C6E7D21D22F0070344
:10062000D3E90023C0E70368126843F020030360A6
:100630000823C3610023B7E7748D00002DE9F05F44
:10064000894604464FF0000ADFF874B1FB44C0F855
:1006500020A02046E1688847002874D0252806D0CD
:10066000D4E901219047206A401C2062F1E700266E
:100670005F462046E16888472028054607DB312D84
:1006800005D2781910F8200C08B10643F1E7B0073D
:1006900001D526F00406C4F81CA00027C4F818A051
:1006A0002A2D09D0284604F0B4FD38B304EB87089E
:1006B000303DC8F8185019E059F8041B204604EBE7
:1006C00087029161E1688847012F054618D1E069EA
:1006D000002820DA26F020061DE0D8F8180000EBEC
:1006E000800005EB40003038C8F818002046E1686B
:1006F0008847054604F08DFD0028EED1012F0AD071
:100700002E2D08D12046E16888477F1C0546022F20
:1007100046F02006C4DBA069002803DA404246F018
:100720000106A061F00701D026F010066C2D0BD059
:10073000682D09D04C2D39D06A2D35D0742D35D087
:100740007A2D33D016E038E0E1682F4620468847FE
:10075000B842054609D16C2F26D04FF48060E1687D
:10076000064320468847054604E06C2F1AD04FF414
:10077000807006430DB3A5F14100192802D8203539
:1007800046F400664A462946204626604E46FFF754
:1007900009FD80B101280BD0F61D26F0070000F1FD
:1007A000080956E74020E4E78020D8E70020D6E794
:1007B00006F104094DE7284652E7206ABDE8F09F9C
:1007C000048D00000FB400B58DB010A90990009100
:1007D0000B904FF0FF300A9000200C9006487844B0
:1007E0000690064878446A4607900F9909A801F0D8
:1007F00025F80DB05DF814FB7B100000931000008D
:1008000030B505460B462A4613F8014B12F8010B8A
:1008100008B1A042F8D01CB1002802D06D1CF1E74D
:10082000284630BD40EA0103024630B59B0710D18F
:100830004FF0013400E008C208C91D1B9D4315EAB2
:10084000C41FF8D013F0FF0102F8011B0DD01B0AE2
:10085000F8E711F8013B002B02F8013B05D011F835
:10086000013B002B02F8013BF3D130BD10B5431C16
:1008700002E010F8011B71B18107FAD14FF001328B
:1008800002C88C1A8C4314EAC211F9D0C01A0A06A5
:1008900003D0C01E10BDC01A10BD0A0401D0801EB6
:1008A00010BD0902FCD0401E10BD40EA010370B526
:1008B0009B072ED14FF00136042A2AD308C810C94D
:1008C0009D1B9D43121F15EAC61517D0D8B2E1B281
:1008D000401A50EA056110D198B2A1B2401A50EA0C
:1008E00005410AD123F07F4024F07F41401A50EAAD
:1008F000052102D1180EA0EB146070BDA342DBD01D
:1009000018BA21BA884201D9012070BD4FF0FF30DA
:1009100070BD0AB9002070BD10F8013B11F8014B01
:1009200063B1A3420AD1521E08D010F8013B11F85E
:10093000014B1BB1A34201D1521EEDD1181B70BD5A
:10094000032A40F2308010F0030C00F0158011F8FB
:10095000013BBCF1020F624498BF11F801CB00F8D3
:10096000013B38BF11F8013BA2F1040298BF00F827
:1009700001CB38BF00F8013B11F0030300F02580E4
:10098000083AC0F0088051F8043B083A51F804CB0B
:10099000A0E80810F5E7121D5CBF51F8043B40F8D1
:1009A000043BAFF30080D20724BF11F8013B11F8DC
:1009B00001CB48BF11F8012B24BF00F8013B00F820
:1009C00001CB48BF00F8012B704710B5203AC0F0AA
:1009D0000B80B1E81850203AA0E81850B1E8185040
:1009E000A0E81850BFF4F5AF5FEA027C24BFB1E87D
:1009F0001850A0E8185044BF18C918C0BDE81040EE
:100A00005FEA827C24BF51F8043B40F8043B08BFF6
:100A10007047D20728BF31F8023B48BF11F8012BBD
:100A200028BF20F8023B48BF00F8012B704702F0B6
:100A3000FF0343EA032242EA024200F002B84FF009
:100A400000020429C0F0128010F0030C00F01B809B
:100A5000CCF1040CBCF1020F18BF00F8012BA8BFA9
:100A600020F8022BA1EB0C0100F00DB85FEAC17C6D
:100A700024BF00F8012B00F8012B48BF00F8012B20
:100A800070474FF0000200B5134694469646203951
:100A900022BFA0E80C50A0E80C50B1F12001BFF437
:100AA000F7AF090728BFA0E80C5048BF0CC05DF89D
:100AB00004EB890028BF40F8042B08BF704748BFEB
:100AC00020F8022B11F0804F18BF00F8012B70475F
:100AD0004FF0013C50F8042B51F8043B9A4221D1CD
:100AE000A2EB0C03934313EACC1317D150F8042B59
:100AF00051F8043B9A4215D1A2EB0C03934313EA3D
:100B0000CC130BD150F8042B51F8043B9A4209D175
:100B1000A2EB0C03934313EACC13DBD04FF000009D
:100B2000704700BFD01A01BAB1FA81F101F0180183
:100B300022FA01F0CB40C1F12001DBB2C0B2C01AF1
:100B40002CFA01F3D11A914311EAC311E6D170478F
:100B5000704770477047000010B500F0F5FE001DAB
:100B600010BD00BF657E000000487047CC2100200A
:100B7000704770477047704738B504460A460020F2
:100B80006946AFF30080002808BF38BD02460099CF
:100B9000204600F0E1FE012038BD012001F0E6B959
:100BA000F8B5AFF30080054600200C46102000BFCA
:100BB0000646A819A0420DD9324669460020AFF377
:100BC0000080070008BF01F0D1F90098A04218BFCB
:100BD0000546C419FFF7C8FF05600746F01D20F061
:100BE00007004619284600F00AF8B44208BFF8BDCD
:100BF000A21B31463868BDE8F84000F0ADBE0021C8
:100C00000160C0E9011070471020704709684A056B
:100C100001D540B27047C905FCD500B270470968DC
:100C20004A0501D5C0B27047C905FCD580B27047EE
:100C30002DE9F0470D4699469246044600F12408F6
:100C40000168880604D5E06921F01001216000E008
:100C50000120A84201DD471B00E00027A1697A19A5
:100C600002EB0900081AA0612078C00602D42046D1
:100C7000FFF70EFC002608E0D4E901211AF806006F
:100C80009047206A401C761C20624E45F4DB207899
:100C9000C0060AD52046FFF7FBFB06E0D4E9012198
:100CA00030209047206A401C2062381EA7F10107BF
:100CB000F4DC07E0D4E9012118F805009047206A28
:100CC000401C2062281EA5F10105F3DC2046FFF739
:100CD000F5FB2078000602D50220BDE8F087012050
:100CE000FBE711680268006A530501D508700AE045
:100CF000D30501D5088006E0130603D5C217C1E964
:100D0000000200E008600120704770472DE9FF4FA6
:100D10000C461E464FF0FF378BB0D2E90001DDF8DC
:100D200060800A908A46C1F30A5505B93D46002104
:100D300008464FF00000BAF1000F00F4400005DA59
:100D400000EB80004FF4400101EA50004FEA905957
:100D5000B9F1010F00DDB9460A9850EA4A000ED0F9
:100D600044F61050A5F2FF3545432F14B8F1000F9B
:100D70001ED07542291E1EDDC9F100021CE0B8F12B
:100D8000010F4FF0000001D0302103E0F24305E0F5
:100D90002154401CB042FBDB30460022002121548C
:100DA0000B99C1F80880C1E900200FB0BDE8F08FB1
:100DB000BD1B6D1CDEE74A4600DA694206A801F059
:100DC00043F806AB93E8070003AB83E807005046FF
:100DD0000A9901F0AAFB8DE80700A0F500501F3822
:100DE00000900398002D0ADD42F21F014A46084494
:100DF000002303A90390684601F056FE09E0A0F520
:100E000000504A461F38002303A90390684601F0AA
:100E100075FE8DE807000004000C03D04FF0FF3092
:100E2000410800E01046B8F1000F03D00022009204
:100E300015461EE0751E05D400F0A8FD303262553F
:100E40006D1EF9D5B3460122084302D000227F1C53
:100E500004E02078302801D100227F1E002A099763
:100E600084D01DE0112D07DA00F090FD303262557C
:100E70006D1C50EA0102F5D1084302D00098C8B1B8
:100E80000EE00021681E05E0235C625C635422547E
:100E9000401E491C8142F7DBAB46A81B401E09904F
:100EA000002004F80B000B98099AC0F80880C0E9EC
:100EB000002B7AE711264FF0000857E72DE9F04F95
:100EC00088460446D21D22F0070191B0D1E9000105
:100ED000CDE90A0104F008F902460B98C00F01D0D1
:100EE0002D2007E02068810701D52B2002E020217A
:100EF00001EAC000032A099001D0072A05DB034656
:100F00004146204600F090FD0BE12078800601D597
:100F1000E06900E00620B8F1650F814606D0B8F11F
:100F2000660F18D0B8F1670F70D131E00020B9F129
:100F3000110F009001DB112301E009F101030AAA5E
:100F400001A90CA8FFF7E2FEDDE90C70002609F10B
:100F50000105834647E001204B4600904FF00047D3
:100F60000AAA01A90CA8FFF7D1FEDDE90DB00C9982
:100F70005D46002610B909F101000D18B9EB050016
:100F800003D4C0F1FF3609F10105A5EB09002BE000
:100F9000B9F1010F01DA4FF001090020B9F1110F89
:100FA0000090484601DD112300E003460AAA01A98A
:100FB0000CA8FFF7ABFEDDE90C704D46002683461A
:100FC000207800070AD4AB4500DA5D4601A8012D60
:100FD00004DD411911F8011C302907D04F4502DA10
:100FE00017F1040F04DA012082460FE06D1EEEE7D0
:100FF000002F02DCED1B3E4403E0781CA84200DD1C
:101000007D1CB81B00F1010A4FF000472078000753
:1010100003D4AA4501DB4FF0FF3A0021B7F1004F9E
:101020000DF143088DF8431024D002202B23002F0C
:1010300001DA7F422D230A21021EA0F1010000DC0B
:101040005FB197FBF1FC97FBF1F201FB1C7C1746AB
:101050000CF1300C08F801CDEEE7A8F101000370A7
:101060002188090501D5452100E06521A0F101088D
:1010700000F8011C09980FA9A1EB0807FF1D00B19A
:101080000120411901EBEA70A1693844081A401E99
:10109000A0612078C00602D42046FFF7F9F909982C
:1010A00028B1D4E901219047206A401C20622078B1
:1010B000C00622D52046FFF7EBF91EE0002E04DB28
:1010C000B34502DD01A8805D00E03020D4E90121B4
:1010D0009047206A401C2062761CAAF101005FEA5A
:1010E000000A0AD100F030FCC0680168405CD4E915
:1010F00001219047206A401C2062281EA5F10105AD
:10110000DCDC07E0D4E9012118F8010B9047206AE4
:10111000401C2062381EA7F10107F3DC2046FFF7D0
:10112000CDF9032011B041E601694A1C026108783B
:10113000704700B58FB0CDE9013100210591054917
:101140007944CDE9031011466846FFF777FA0FB0EE
:1011500000BD0000E5FFFFFF0A6802F8010B0A600E
:10116000704710B5436913B1AFF3008001E0FFF79A
:10117000B6F9012010BD127800F124010A70002296
:101180004A700122EDE711684FF0FF32E9E70000F5
:101190002DE9FF5F15468A460446DFF8AC80F84427
:1011A0000027D8E900103E46CDE9001010E03AF8DB
:1011B00016106A4602A800F0B9FE411C07D021783B
:1011C000890603D5E269391891420DD80744761C87
:1011D0002078800602D5E069B84205DDAE42E6DB44
:1011E0003AF816000028E2D1A069C01BA061204691
:1011F000FFF74EF9D8E90010CDE90010002017E004
:101200003AF818106A4602A800F090FEB0F1FF3FCD
:1012100081460BD000250DF1080B05E0D4E9012132
:101220001BF8050090476D1C4D45F7D308F10100F0
:10123000B0428046E4DB206A384420622046FFF753
:101240003DF9BDE8FF9F0000C68100002DE9F04197
:101250008046D21D22F007020025D2E90002F529BE
:1012600015A614D0011E72F1000106DA0023D0EB9E
:10127000030063EB020211A608E0D8F800108B0708
:1012800001D50FA602E0490701D50EA6012511469A
:10129000002408F1240704E000F078FB30323A55CE
:1012A000641C50EA0102F7D12B46324621464046E3
:1012B000BDE8F041FFF7BCBC000000002D000000BD
:1012C0002B0000002000000030B4002100F12404B5
:1012D00008E002F00705D208303542EA4372DB0825
:1012E0006554491C52EA0305F3D10468002310A297
:1012F000250707D5A40600D421B1C46901230DA296
:10130000641EC46130BCFFF793BC10B5044621468F
:101310001068FFF784FC02462046BDE81040002319
:10132000D2E7D21D22F00701D1E90023CCE700006B
:1013300000000000300000002DE9FF4F06468BB092
:101340000878FF2806D0491C2D2805D000244FF02E
:10135000000908E000200CE00124F8E709EB89030C
:10136000491C00EB43090878FF28F7D114B1C9F1F3
:1013700000008146107800252C46AA4629462D28D3
:1013800001D02B2804D1521C2D2813D000208246D6
:101390008B461078FF280FD04FF0000C0A21521C0A
:1013A000A5FB017804FB018105FB0C11C5194BEB72
:1013B0000104EEE70120EAE7002108464FF00000B3
:1013C000BAF1000F02D000EB80004008C0F3815753
:1013D000012F01DD4FF0FF370E9955EA040009EBAC
:1013E00001080BD04FF0020918F5FA7F16DA4FEA20
:1013F000CA70002F706008DD012007E04FEACA7054
:10140000C6E900B00FB0BDE8F08F0020306000F0FA
:101410009FFAC0F800901821084616E0B8F5FA7F48
:1014200018DD002F02DAF748784401E0F6487844E6
:10143000D0E90010C6E9001040EACA70706000F000
:1014400087FAC0F80090142108460FB0BDE8F04FAD
:1014500007F0C9BE002108464FF00000B8F10001B6
:10146000099002DAC7F1000200E03A4601DAC8F159
:10147000000106A800F0E8FC06AB93E8070003AB08
:1014800083E8070044F23E005BEA040100905846FE
:1014900004D144F21E012C465D460091210C090442
:1014A000014306D10099240444EA15442D0410395F
:1014B000009104F07F41014306D10099240244EADF
:1014C00015642D020839009104F07041014306D1E2
:1014D0000099240144EA15742D01091F009104F0BC
:1014E0004041014306D10099A40044EA9574AD003F
:1014F000891E009104F00041084304D100986D1941
:101500006441401E00904FF001033A466846B8F12E
:10151000000FCDE9014503A902DD01F004FB01E064
:1015200001F0D7FABAF1000F04460D4601D084F05D
:101530000044002108464FF00000099940F2FF776F
:10154000484010F00C0F07D124F00040284303D08E
:10155000C4F30A50B84212D100F0FAF9C0F8009072
:10156000C4F30A50B8420AD1A8487844D0E9001020
:10157000C6E9001004F000410843706042E7C6E984
:1015800000543FE72DE9FF4F1F464FF0000A4FF090
:10159000FF38454691B0D7E90146CDF83CA000F0B0
:1015A000D3F9C0680168405C1090B96912986D1C4D
:1015B0008847396A814688470028F6D1B9F1FF3F4C
:1015C0000AD0002E24F4D06411DDB9F12B0F08D01D
:1015D000B9F12D0F0BD102E0404615B013E744F4EA
:1015E0008064B96912986D1C8847761E8146600533
:1015F00004A901D52D2000E02B20002E01F1010BC4
:101600000DF130088DF810003FDDB9F1690F08D0F9
:10161000B9F1490F05D0B9F16E0F02D0B9F14E0FF3
:101620001CD13B4601A8009580E85002DDE912126A
:101630006FF0020007F040FEC11CCED10EE0B96988
:1016400012986D1C884781461398761E44F40074E6
:1016500005600F98401C002E0F9016DDB9F1300F79
:10166000EDD0B9F1780F02D0B9F1580F0DD10F9824
:1016700001280AD13B46CDE90054DDE91212001FD2
:10168000029607F017FEC11CA7D1109989453ED1DB
:1016900044F0800406E01399681CAAF1010A44F49E
:1016A00000740860B9696D1C1298761E884730284E
:1016B0008146F0D02BE01099894505D1200603D44E
:1016C000761E44F0800418E0484603F0A2FD08B3FB
:1016D000761E0DF123018B4544F4007408D2A9F164
:1016E00030000BF8010B200607D5AAF1010003E03A
:1016F000200602D40AF101008246A00502D5139902
:10170000681C0860B96912986D1C88478146002ED4
:10171000D1DC53E0002E51DDB9F1650F02D0B9F1F3
:10172000450F4BD1A00549D5B9696D1C1298761E9D
:1017300024F440748847002E81460CDD2B2804D009
:10174000B9F12D0F07D144F48074B96912986D1C5A
:101750008847761E8146E00501D52D2100E02B212A
:1017600008F8011BCDF8008021E0761E0DF139014B
:10177000884544F400740CD2A9F1300010F0FF0049
:1017800088F8000002D10099884509D908F10108BC
:1017900006E0E00501D51E4801E042F20F708246E6
:1017A000B96912986D1C8847814613980560002E10
:1017B00004DD484603F02DFD0028D6D1F9691298C2
:1017C0008847FF2053468BF8000088F8000000206F
:1017D0000A900B9004AA0CA90AA8FFF7ADFDA0057A
:1017E00002D46FF00100F8E614F0240F12D0E007E5
:1017F0001CD13868DDE90A12031D3B600068C0E9AE
:10180000001213E0D0800000C2800000867F00003C
:10181000F1D8FFFF0AA9684603F08AFCE00705D16A
:101820003868009A011D3960006802602846D4E6D5
:10183000026811441378016018467047D160054969
:1018400079445161044979441162002111611146C2
:1018500000F040B9EDFFFFFFCD010000426842B14A
:10186000016811F8013B23B1521EC0E9001218466D
:1018700070470121C160881E704742685AB1C36831
:10188000016843B983688B4205D0491E521CC0E9E8
:101890000012002070474FF0FF3070470FB4002354
:1018A00000B589B00CA900910B99CB60214B7B440A
:1018B0000693214B7B44079304236FF00042CDE94C
:1018C00001321E4A7A446B4608920246002007F015
:1018D000EFFC09B05DF814FB70B506464FF0FF3021
:1018E00015460C46324686B00091CDE901016946A5
:1018F0000020049004A8FFF7D1FF024604982118A5
:1019000025B108B1084600E0204628600498002868
:101910000DD0002A02DD0098884208D03246081B0C
:1019200069460094CDE9010404A8FFF7B7FF06B0AB
:1019300070BD0000ABFFFFFFC3FFFFFF4F010000C2
:1019400000487047C421002000487047E42100206F
:1019500000487047C4210020034640688C46002898
:1019600018BF88423CBF03464068F8D31868184443
:10197000884207D00CF1030020F00700001D411A37
:10198000521A0146081D0A60FEF7C9BC30B5B0F115
:101990000A024FEA900E71F100034EEA817EB0EB2D
:1019A0000E0061EB91014FEA101E4EEA017E10EB32
:1019B0000E0041EB11114FEA102E4EEA016E10EBB2
:1019C0000E0041EB11214FEA104E4EEA014E10EB92
:1019D0000E0041EB1141401841F100014FEAD000E7
:1019E00040EA41704FEAD10110EB80054FEA8104D3
:1019F00044EA907444EB01046D1944EB0404521B57
:101A0000A3414FF0000348BF0A3200D530BD401C4F
:101A100041F1000130BD10B50446FFF79DF80068A4
:101A2000005D00F0010010BD2DE9F0411F460446A5
:101A300003260168072A01F4006004DB08B116A53B
:101A400005E016A503E008B115A500E015A521F0F5
:101A500010002060A069C01EA0610FB1401EA061EF
:101A60002046FEF715FD4FB1D4E9012138469047D5
:101A7000206A401C2062C01C206206E0206AFAE74F
:101A8000D4E9012115F8010B9047761EF8D22046C3
:101A9000FEF714FDBDE8F0814E414E006E616E0010
:101AA000494E4600696E660010B5436913B1AFF345
:101AB000008001E0FFF76CFB012010BD128800F1EF
:101AC000240182840022C2840122EDE711684FF0D4
:101AD000FF32E9E72DE9F34F4FF0000A0C46564676
:101AE0008DB001200C9001F10C000B9062690B98F5
:101AF00001219047051E2DD0252D2CD0216A884725
:101B0000C0B162690B9801219047216A884700287B
:101B1000F7D16269411E0B98904700E0761CA169DD
:101B20000D988847216A88470028F7D1E1690D9808
:101B30008847DBE7A1690D988847A842074601D18D
:101B4000761CD3E7E1690D9888477F1C02D1BAF172
:101B5000000F6FD06CE162690B9800273D46394653
:101B600090472A2804D162690B98012190470125EA
:101B7000DFF8D08262690B9801219047A0F1300113
:101B80000A290AD24745E5DC07EB870100EB41074C
:101B9000303FDFD445F01005ECE7E90601D46FF0E3
:101BA00000476C280AD04C2814D0682815D06A2821
:101BB0000DD074281CD07A281AD01DE062690B98C9
:101BC000012190476C2802D045F0040514E045F04F
:101BD00002050DE045F020050AE062690B9801213D
:101BE0009047682802D045F0080505E045F40065F7
:101BF00062690B9801219047C4E9015765283DD0DF
:101C000019DC58287AD00CDC452837D004DC25288C
:101C100026D041289ED131E046282FD0472899D19F
:101C20002CE05B2877D0612828D063287CD06428FA
:101C300023D15AE0F7E06F2848D008DC66281DD091
:101C400067281BD0692821D06E2816D127E070287C
:101C500045D0732868D0752847D078280DD14DE03D
:101C6000A1690D988847252805463FF469AFE169C9
:101C70000D9888476D1C3FF46AAFD9E00D99234653
:101C80006A466FF0010007F013FBC6E045F0400024
:101C900023464FF000026060A80736D43EE0E80714
:101CA0007FF447AF2068011D21600068290501D538
:101CB00006701BE7290701D5068017E7A90703D59A
:101CC000F117C0E9006111E706600FE745F0400039
:101CD00023464FF008026060A80716D41EE040F6C5
:101CE0000E0125EA0100606016E045F04000234641
:101CF0004FF00A026060A80707D40FE045F04000EB
:101D00006060A80708D5234610220D996FF00100E6
:101D1000AFF3008081E007E0102223460D996FF0B9
:101D20000100AFF3008078E04FF0000963284F46D0
:101D3000C8464B46CB4602D05B2807D039E0207915
:101D4000C00601D40120A060012732E06269D4F806
:101D50000CB00B98012190475E2807D14FF0010984
:101D600049466269D4F80CB00B989047216939B99B
:101D700000210A4603AB43F82120491C0829FADB5D
:101D8000D8B3216949B308F1010862690B980121B0
:101D900090475D28F4D1B9F1000F09D0002003A9C4
:101DA00051F82020D24341F82020401C0828F7DBBE
:101DB00003AB2069002820794FEA40701ED05B46B3
:101DC0002246CDF80080CDE901970D9900286FF0EB
:101DD000010020DAAFF300801FE0C11703AA00EB77
:101DE000D1614B1121F01F0102EB8302411A1368EC
:101DF0000120884003431360C7E719E00D9922468C
:101E000000286FF00100009702DAAFF3008004E0D1
:101E1000AFF3008001E0AFF3008000280ADA401C35
:101E200006D10C9820B14FF0FF300FB0BDE8F08F15
:101E30005046FAE7E90701D10AF1010A06440020F9
:101E40000C9053E6CCCCCC0C2DE9F04781461646DD
:101E50008AB0354878440DC88DE80D003248784482
:101E6000801C03AC0DC884E80D0041F69B3008448B
:101E7000372190FBF1F290FBF1F5A5F1800501FB14
:101E800012041B3C02D56442012000E00020DFF870
:101E900098A080460027FA44AAF1BE0A0EE0E007A7
:101EA0000AD03246684607EB470101230AEB81015D
:101EB00000F024FE8DE8070064107F1C002CEED19A
:101EC000194F7F44AE3F19E0E80715D007EB041027
:101ED0000DF1180A90E80E008AE80E00C068F04282
:101EE00001D1981908903246012306A903A800F0F1
:101EF00005FE03AB83E807006D10641C002DE3D1E1
:101F00004FF0010332466946B8F1000F03A802D032
:101F100000F0CAFD01E000F0F1FDC9E90001C9F8D7
:101F200008200AB0BDE8F0879475000070B5164629
:101F30000C460546FEF710FE036893F801010128E0
:101F400006D0FF2C0FD8185D68B101202C7070BD31
:101F5000D3F807013246214603F20713034428460B
:101F6000BDE8704018474FF0FF3070BD10B500F06D
:101F70006DFABDE8104000F064BA70477546FFF78F
:101F8000DFFCAE4605006946534620F00700854653
:101F900018B020B5FEF782F9BDE820404FF00006EA
:101FA0004FF000074FF000084FF0000B21F0070141
:101FB000AC46ACE8C009ACE8C009ACE8C009ACE884
:101FC000C0098D46704710B5FFF7C2FC006810BD10
:101FD00010B50446FFF7BCFC046010BD2DE9FF4FAF
:101FE0001F464FF03C0987B04FF00042DDE9141066
:101FF00001F10108DDF858A002EA405003900020EA
:1020000005908346054604460490B969461E089823
:102010008847AAF1010A0290BAF1000F3BDD02984D
:102020002E2815D0102100F052FA00282EDB4FF098
:10203000010B0599014317D0B9F1000F0BDB4A469C
:10204000C11700F031FA05430C43A9F1040905E07A
:10205000012004900BE008B145F001050120059036
:10206000049820B9361D02E0049800B1361FB96902
:10207000089808F101088847BBF1000FAAF1010A8E
:102080000290C9D00999C1F80080C5E7029870286C
:1020900008D0502806D0F96908988847BBF1000F8E
:1020A00014D04FE0002002900120BBF1000F0490FB
:1020B00009D0B969089808F101088847AAF101090F
:1020C000B9F1000F07DCF969089888476FF0010043
:1020D0000BB0BDE8F08F2B2804D02D280CD14FF089
:1020E000FF300490B969089808F101088847A9F100
:1020F0000109B9F1000FE6DD411CE4D00A2100F02E
:10210000E6F90028DFDB029908F1010801EB810103
:1021100000EB41000290B969089888470A2100F055
:10212000D6F9099AA9F10109B9F1000FC2F80080A6
:1021300001DD0028E7DAF9690898884704990298D0
:1021400000FB016655EA040004D004F04041090098
:1021500002D006E0039898E0A40044EA9574AD002C
:10216000B61E04F00041080002D16D196441761ECC
:10217000159810F0240F03D04FF00B095C4803E0D2
:102180004FF028096FF07D008246564507DAAAEB2A
:1021900006018944B9F1410F01DD4FF041090120E9
:1021A0000021A9F1010200F07FF9024628400B4608
:1021B0002140084301D0012100E00021501E02917E
:1021C00043F1FF3128402140084301D0012000E0C5
:1021D00000200299834651EA0B014FD000210846A6
:1021E0004FF00000039900F4400039B100EB80008B
:1021F0004FF4400100EBD07001EA60008015012827
:1022000002DD4FF0FF3000E013D0401C36D00298C2
:1022100060B3BBF1000F0CD14A460120002100F051
:1022200043F928402140084301D0012000E000206C
:10223000E0B101204A46002100F036F9034640197A
:102240000A4661412D1A8C4111D3B9F1400F09DDC5
:10225000159810F0240F02D0AAF1340603E0AAF179
:10226000170600E0761C00254FF0004406E05B1ED8
:1022700042F1FF3220EA030521EA0204CAF101001B
:10228000B04206DA1B4903980843019000200090F1
:102290000EE0039AC4F3D321E80A0A43164940EA40
:1022A00044500A433146CDE90002684602F0A6FFD9
:1022B000159810F0240F0BD01598C00715D1386869
:1022C000DDE90012031D3B600068C0E900120CE06C
:1022D00002A8694602F02CFF1598C00705D138689E
:1022E000029A011D3960006802604046F0E6000075
:1022F00002FCFFFF0000F07F0000F03F2DE9FF4FE0
:1023000092461D4685B04FF00041DDE9124BDDE9F4
:1023100014727F1E01EA4B50414940F0FF4940EAE8
:102320000108002122F020004928049102D04E2803
:1023300028D04CE03BA0012607C88DE80700A9691A
:102340000698641C88477F1E014606D41DF80600C7
:1023500018B121F0200181420BD0E9690698884725
:10236000032E34D0082E32D06FF0010009B0BDE842
:10237000F08F761C032E01D0082EE0D1601CCAF825
:102380000000DCE7A9690698641C88477F1E2AD4F0
:1023900020F02000412826D1A9690698641C8847AE
:1023A0007F1E20D420F020004E281CD1A969069859
:1023B000641C88477F1E48F4002849F48009CAF845
:1023C000004001D4282806D0E969069888475FEACA
:1023D000CB7012D022E0A9690698641C88477F1E42
:1023E00001D4002803DAE96906988847BCE7292860
:1023F000F1D1641CCAF80040E9E71BF0240F07D0B4
:1024000028680499031D2B600068C0E9001805E0E6
:102410002868021D2A600068C0F800902046A5E7E1
:102420000000F07F494E46494E49545900000000D3
:1024300010B50446AFF300802046BDE81040FDF71C
:1024400018BF002801D000F029B8704710B5012846
:1024500005D0002103A000F048F8012010BD09A11B
:10246000F8E7000053494752544D454D3A204F7507
:1024700074206F662068656170206D656D6F72797C
:10248000000000003A2048656170206D656D6F7234
:102490007920636F72727570746564000149182049
:1024A000ABBEFEE726000200B2F120030AD5C2F15E
:1024B000200301FA02F120FA03F300FA02F041EAE4
:1024C0000301704700FA03F14FF0000070473A280B
:1024D00000D2303820F02002412A01D3A2F1370087
:1024E000884201D34FF0FF30704770B505460C4667
:1024F0000A2000E06D1C00F011F835B128780028A2
:10250000F8D102E0641C00F009F814B1207800282A
:10251000F8D1BDE870400A20AFF3008008B56946E5
:102520008DF800000320ABBE08BD5FEA400C08BF79
:1025300091F0000F4FEA8C234FEAC12243EA515138
:102540004FEA1C5018BF00F5F0404FEA300018BFAA
:1025500041F000415FEA6C5C00F02980BCF1FF3F74
:1025600008BF40F080407047130C06BF12044FF0C4
:10257000100C4FF0000C130E04BF12020CF1080CEB
:10258000130F04BF12010CF1040C930F04BF92004F
:102590000CF1020CD30F04BF52000CF1010C1146D8
:1025A0004FF00002A0F11F00A0EB0C00704711F0EB
:1025B000004F08BF704731F000413FF4D5AF0B0C1E
:1025C00006BF09044FF0100C4FF0000C0B0E04BFB7
:1025D00009020CF1080C0B0F04BF09010CF1040CEB
:1025E0008B0F04BF89000CF1020CCB0F04BF490014
:1025F0000CF1010CCCF12003A0EB0C0022FA03F348
:1026000002FA0CF241EA030100F10100704720F0E8
:102610007F4C80EA030023F07F47ACEB070303F510
:102620007C5300F0004003F1FF032DE980494FEA9D
:10263000154B09B44FEA144325EA0B4E24EA03482C
:102640000FF2042606EB132749083E785FEA3202B0
:1026500003FB0667C7F5000707FB06F64FEA54378A
:102660004FEAD64606F1020607FB066CCCF1005C89
:102670004FEA1C472CEA074C07FB06F40CFB06F557
:1026800004EB15464FEA961634BF00204FF0004089
:102690004FEAD13706FB07FC4FEA1C4C0CFB0BF74B
:1026A000D21B03FB0CF761EB07010CFB0EF7B0EB41
:1026B000074072EB17420CFB08F734BFA2EB07424E
:1026C000B2EB074261EB17414FEA0C444FEA910726
:1026D00006FB07FC4FEA1C4C0CFB0BF7B0EBC740AA
:1026E00072EB573203FB0CF734BFA2EBC742B2EBDD
:1026F000C74261EB57310CFB0EF7B0EBC70072EB32
:1027000057720CFB08F734BFA2EBC702B2EBC7024B
:1027100061EB5771039F4FEA816141EA921104EB2B
:10272000CC044FEAD1374FEA826206FB07FC42EA4B
:1027300090124FEA80604FEA1C4C0CFB0BF7D21B47
:1027400003FB0CF761EB07010CFB0EF7B0EB074046
:1027500072EB17420CFB08F734BFA2EB0742B2EB57
:10276000074261EB17414FEA8C554FEA910704EBA2
:102770009C2406FB07FC4FEA1C4C0CFB0BF7B0EB50
:10278000C74072EB573203FB0CF734BFA2EBC742D2
:10279000B2EBC74261EB57310CFB0EF7B0EBC70051
:1027A00072EB57720CFB08F734BFA2EBC702B2EB17
:1027B000C70261EB577115EB4C254FEA816141EA85
:1027C00092114FEA82624FEAD13742EA901206FB39
:1027D00007FC44F100044FEA80604FEA1C4C0CFBFC
:1027E0000BF7D21B03FB0CF761EB07010CFB0EF799
:1027F000B0EB074072EB17420CFB08F734BFA2EBBB
:102800000742B2EB074261EB174115EB1C154FEA8B
:10281000813141EA92414FEA823242EA90424FEAE4
:1028200080304FEA0C7644F1000448EA03434EEA54
:102830000B484FF0000EB2EB080C71EB030724BFFE
:10284000624639464EEB0E0E4FF0000B0018524117
:1028500049414BEB0B0BB2EB080C71EB03077BF11F
:10286000000B24BF624639464EEB0E0E4FF0000BB4
:102870000018524149414BEB0B0BB2EB080C71EBCA
:1028800003077BF1000B24BF624639464EEB0E0E68
:1028900051EA020718BF46F0010616EB0E7655F115
:1028A000000254F1000103D5BDE88901BDE80088AC
:1028B000BDE88901BDE80048B619524141EB01016C
:1028C000A3F10103704780807F7E7D7C7B7A7978DD
:1028D000777676757473727171706F6E6E6D6C6CE5
:1028E0006B6A6A6968686766666564646363626187
:1028F0006160605F5F5E5E5D5D5C5C5B5B5A5A5908
:102900005958585757565655555554545353525273
:102910005251515050504F4F4F4E4E4D4D4D4C4CCB
:102920004C4B4B4B4A4A4A49494948484847474714
:102930004746464645454544444444434343434251
:10294000424242414141000046EA0646A3F5705327
:102950004FEA164646EA42564FEAD22242EA41522E
:1029600010B54FEAD121A3F1010300F02FF820F0B8
:10297000004000F1020C00F0004701EB005011464E
:10298000BCF5006F40EA070000D210BDBAF1000F9D
:102990000AD01CB503B44FF004004FF004014FF00F
:1029A00000000FBCBDE810404FF00001BBF1010F6B
:1029B000B9BF04484FF0FF310348002140EA070047
:1029C00010BD00BFFFFFEF7F0000F07F002B9C4693
:1029D00030D477002BD01CB54FEA370703B44FF043
:1029E00010004FF01001BAF1000F06D0BCF1000F3B
:1029F000DCBF40F0080040F008014FF000000FBCC1
:102A0000BDE810400BF1010BBBF1010F08BF5FEAFD
:102A1000170722BF12F1010211F101014FF000412D
:102A200043F1000300F0004043EA00007047F9D38F
:102A30005708D0E746EA064613F1400F4FEA16461C
:102A40001FDD13F1200FDFBF16430A46002120339C
:102A50005B42BED0C3F1200746EA064602FA07F7FA
:102A60004FEA164646EA0706C3F1200722FA03F2A8
:102A700001FA07F721FA03F14FF0000342EA0702D7
:102A8000A7E746EA020646EA06464FEA164646EA3F
:102A90000106BCBF46EA0646360C4FF000034FF075
:102AA00000024FF0000194E72DE9804C9A469346CE
:102AB00070B491E8380007C831EA400C48BF34EAE6
:102AC000430C03D5FFF7A3FDFFF780FFF0BCBDE883
:102AD000008C2DE9804C9A46934670B491E83800FA
:102AE00007C831EA400C48BF34EA430C03D5FFF76E
:102AF0008EFDFFF729FFF0BCBDE8008C2DE9804C6E
:102B00009A46934670B491E8380007C810F0804F99
:102B100008BF13F0804F03D100F01AF8FFF756FFFB
:102B2000F0BCBDE8008C2DE9804C9A46934670B409
:102B300091E8380007C810F0804F08BF13F0804FAD
:102B400003D100F005F8FFF7FFFEF0BCBDE8008CF4
:102B500020F07F4780EA030023F07F4C07EB0C0353
:102B6000A3F57C5300F00040A3F1FE0392F0000FA8
:102B700000F0B38095F0000F00F077802DE9014957
:102B80004FEA11404FEA144621EA004800FB06FCD8
:102B900024EA064708FB06F607FB08F800FB07F7E0
:102BA00018EB06484CEB164C4FEA124B18EB074853
:102BB0004FEA15464CEB174022EA0B4E0BFB06FC86
:102BC00025EA06470EFB06F607FB0EFE0BFB07F792
:102BD0001EEB064E4CEB164C4FF000061EEB074E5C
:102BE0004CEB174B18EB0B0840F1000018EB0E0BE9
:102BF00058EB000840F100008F1A4FF000013CBF75
:102C0000C943661B14BFB5EB040C00213CBFC9438C
:102C1000F61B4FEA17444EEA8E0E27EA04454FEAA8
:102C20001C4704FB07622CEA074C05FB07F70CFB6B
:102C300005F604FB0CFC16EB074642EB174216EBBD
:102C40000C4642EB1C421BEB060658EB02024141CC
:102C500046EA9E0601D5BDE80189B619524141EB0D
:102C60000101A3F10103BDE801894FEA14454FEAD0
:102C7000114724EA054621EA074C05FB07F406FB49
:102C800007F70CFB06F105FB0CFC11EB074144EBCD
:102C900017444FEA124711EB0C4144EB1C4422EA63
:102CA000074C05FB07F206FB07F70CFB06F605FBD6
:102CB0000CFC16EB074642EB174216EB0C4642EBB8
:102CC0001C456A1854F1000148BF7047B6195241BB
:102CD00041EB0101A3F10103704795F0000F37D0DC
:102CE0004FEA11424FEA144721EA024624EA074C10
:102CF00002FB07F106FB07F70CFB06F402FB0CFCDA
:102D000014EB074441EB17414FEA154714EB0C4411
:102D100041EB1C4125EA074C02FB07F506FB07F7D0
:102D20000CFB06F602FB0CFC16EB074645EB1745C1
:102D300016EB0C4645EB1C42121951F1000148BF3D
:102D40007047B619524141EB0101A3F101037047ED
:102D50004FEA14454FEA114724EA054621EA074C99
:102D600005FB07F106FB07F70CFB06F24FF0000628
:102D700005FB0CFC12EB074241EB174112EB0C4236
:102D800051EB1C4148BF7047921841EB0101A3F180
:102D90000103704710B5A2B0802200212E48FDF734
:102DA00046FE2EA231A12C48FDF75CFB2A48FDF718
:102DB0005DFD38490860802200213748FDF737FE65
:102DC00036A326A238A13448FDF74CFB3248FDF764
:102DD0004DFD374908608022002102A8FDF727FE3B
:102DE0002EA01EA31DA233A1009002A8FDF73AFB5E
:102DF00002A8FDF73BFD0446202037A33F4A2146A9
:102E0000009002A804F00EF83C48FDF72FFD3C4965
:102E10000860802200213B48FDF709FE1FA23AA16D
:102E20003848FDF71FFB40F25B70414908600846D7
:102E3000344902683FA003F0C5FE074942A003F0F1
:102E4000C1FE154944A003F0BDFE2C4946A003F085
:102E5000B9FE22B010BD0000981E002048472D6C1E
:102E6000696768742D3030320000000025737C7370
:102E700065637572656D6F64653D332C7369676E4C
:102E80006D6574686F643D686D6163736861317C02
:102E90000000000034000020181F00206131646829
:102EA00069786C4D52565700257326257300000033
:102EB00038000020636C69656E744964257364652D
:102EC000766963654E616D65257370726F647563B5
:102ED000744B6579257300003936356338323539DE
:102EE00033303462656465653664626566343462C5
:102EF000323166383663663200000000981F0020C9
:102F00003C0000201820002025732E696F742D616D
:102F1000732D6D7174742E636E2D7368616E6768A6
:102F200061692E616C6979756E63732E636F6D00D4
:102F300040000020B7FE20CEF120C6F7A3BA2573CB
:102F40003A25640D0A000000BFCDBBA7B6CB4944AB
:102F5000A3BA25730D0A0000D3C320BBA720C3FB6F
:102F6000A3BA25730D0A0000C3DC20202020C2EB89
:102F7000A3BA25730D0A00007047000070B505461E
:102F80000C462246294615480068801CFDF7D8FCEF
:102F90002046E11704EB1161090A104A126811700A
:102FA000E11704EB11610912A4EB01210B4A12682D
:102FB0005170002109480268A01C1154074800689C
:102FC00000F59670054908600846006804490968DC
:102FD000884202D103480149086070BD28000020E2
:102FE0003000002038150020704710B56FF0040045
:102FF00000F068FE10BD000010B50146B1F5E16FAC
:1030000022D201EBC1034FF47A7463434FF0E02402
:1030100063610023A36123461B6943F0010323611D
:1030200000BF4FF0E023186900F001031BB100F46A
:103030008033002BF5D04FF0E0231B6923F0010310
:103040004FF0E02423614FE000221FE0274B4FF0B8
:10305000E02463610023A36123461B6943F001035D
:10306000236100BF4FF0E023186900F001031BB19A
:1030700000F48033002BF5D04FF0E0231B6923F0E0
:1030800001034FF0E0242361531CDAB24FF4E163F3
:10309000B1FBF3F39342D9D84FF4E163B1FBF3F4FE
:1030A00003FB141303EBC3034FF47A7463434FF031
:1030B000E02463610023A36123461B6943F00103FD
:1030C000236100BF4FF0E023186900F001031BB13A
:1030D00000F48033002BF5D04FF0E0231B6923F080
:1030E00001034FF0E024236110BD00004031F700E0
:1030F00010B54FF4007000F01BF870B90A20FFF70C
:103100007BFF0648006800F4007010B901200449F4
:1031100008704FF4007000F005F810BD080C014075
:103120006800002001490860704700001404014055
:10313000014600200022074B1B6803EA0102054BF1
:1031400014331B680B4013B10AB1012000E00020CA
:1031500070470000000401402DE9F04102460025BF
:103160000026002000230024002791F803C00CF063
:103170000F0591F803C00CF0100CBCF1000F03D048
:1031800091F802C04CEA050591F800C0BCF1000FAF
:1031900031D0146800202BE04FF0010C0CFA00F342
:1031A000B1F800C00CEA03069E4220D183004FF024
:1031B0000F0C0CFA03F7BC4305FA03FC4CEA0404B9
:1031C00091F803C0BCF1280F06D14FF0010C0CFAA6
:1031D00000FCC2F814C00AE091F803C0BCF1480F2B
:1031E00005D14FF0010C0CFA00FCC2F810C0401CD5
:1031F0000828D1D31460B1F800C0BCF1FF0F34DD52
:10320000546800202EE000F1080C4FF0010808FA85
:103210000CF3B1F800C00CEA03069E4221D18300F2
:103220004FF00F0C0CFA03F7BC4305FA03FC4CEA11
:10323000040491F803C0BCF1280F05D100F1080C7B
:1032400008FA0CF8C2F8148091F803C0BCF1480FDA
:1032500007D100F1080C4FF0010808FA0CF8C2F889
:103260001080401C0828CED35460BDE8F08102468F
:10327000002093680B400BB1012000E00020704754
:1032800002460020D3680B400BB1012000E0002073
:10329000704741617047016170470AB1016100E008
:1032A00041617047704700002DE9F0410746002654
:1032B00000240025384602F0E5F8064646B902F03B
:1032C000C3F88046414616A003F07CFCBDE8F081BF
:1032D00000251EE07DB1022D17D116A1304602F067
:1032E000BBF8044634B1606900F0C2F8606902F0CE
:1032F000CDFA03250AE012A1304602F0ADF80446EB
:1033000014B100F04DF8032500E000BF00BF681CB9
:10331000C5B2032DDEDB304602F06AF800BFD5E708
:103320004572726F72206265666F72653A205B2526
:10333000735D0A006C69676874696E675F320000CC
:1033400062726F61646361737400000008B50121EB
:103350000C2000F0B7FB1220ADF8000003208DF820
:10336000020010208DF8030069460B48FFF7F4FEB9
:103370004FF48060ADF8000048208DF80300012074
:103380008DF8020069460548FFF7E6FE1021024865
:10339000FFF781FF08BD000000080140000C01405C
:1033A0002DE9F047002402F017F8804602211B485F
:1033B000FFF766FF8146484605F08BFC064601F0A4
:1033C000D9FF05462A4616A1404601F0C3FF17481B
:1033D000007805F095FC054601F0CCFF07463A461B
:1033E00013A1404601F0B6FF404602F0D1F8044672
:1033F00064B1214611A003F0E5FB2046FDF736FA43
:1034000005462A46214612A000F034FA404601F053
:10341000EFFF204602F0C6F8BDE8F0870008014043
:103420006C69676874696E673200000000000020F4
:103430006272696768746E6573733200B7A2CDF902
:10344000B7FECEF1C6F7D0C5CFA23A25730D0A005C
:103450002F62726F6164636173742F613164686994
:10346000786C4D5256572F494F546D7367000000CA
:1034700010B50446002C04DD02210648FFF70BFFBF
:1034800003E002210348FFF704FF204602F0FEF9A3
:1034900010BD00000008014010B51648164908602C
:1034A000084600681549086015481649086016481E
:1034B000164908600846006815490860154816490D
:1034C00008601648164908600846006815490860F3
:1034D00015481649086000F041F8002114A000F0DA
:1034E0003FFA00201A4908701A4908701A490870F2
:1034F00010BD0000800900201000002014000020F2
:10350000300E0020180000205C0F00201C0000205E
:10351000200000200C14002024000020381500207A
:10352000280000202C0000206C1D0020300000200E
:103530002F62726F6164636173742F6131646869B3
:10354000786C4D5256572F494F546D7367000000E9
:1035500053000020520000205000002070B50120D0
:103560007A4908600A207A4908607A480068001D94
:10357000794909680844801C7849096808447849F1
:10358000086073480068096844181020754908707D
:1035900000BF2046E11704EB5161C911A4EBC1152E
:1035A000E11704EB5161CC11002C01DD45F08005E1
:1035B0006C48664A1268855464480068401C634938
:1035C0000860002CE5DC0021664A60480068115460
:1035D00004215E480068401C11544D215B4800687E
:1035E000801C1154512159480068C01C11545421A9
:1035F00056480068001D115454480068401D11547D
:10360000042152480068801D1154C2214F480068AF
:10361000C01D115400214D48006808301154642128
:103620004A480068093011544A490868C11700EB3C
:103630001161C1F307224B4B444909680A315A54BE
:1036400044490868C11700EB11610912A0EB012180
:10365000CAB23E4909680B315A541A463B490968B7
:103660000C3150183B490A683F49FDF769F93A495E
:103670000868C11700EB1161C1F3072233490968DB
:103680000C31344B1B681944364B5A543249086884
:10369000C11700EB11610912A0EB0121CAB22B493D
:1036A00009680D312B4B1B6819442E4B5A5427497E
:1036B00009680E31274A126811441A4688182649AB
:1036C0000A682A49FDF73CF924490868C11700EB4C
:1036D0001161C1F307221D4909680E311D4B1B689A
:1036E00019441D4B1B6819441E4B5A541B4908684A
:1036F000C11700EB11610912A0EB0121CAB21349F5
:1037000009680F31134B1B681944134B1B6819448C
:10371000144B5A540D49096810310E4A126811446D
:103720000D4A126811441A4688180C490A68104953
:10373000FDF706F905480068054A12681044084A72
:1037400012688118074800F011FE70BD4400002087
:103750004800002034000020380000203C000020F9
:103760004C00002098200020981E0020181F0020E8
:10377000981F00202DE9F04FD1B0804698F8011035
:1037800098F8000001EB0020509008F1020700209B
:103790008146054606464F9001244FF0010A00BFBE
:1037A0004F98401C4F9000BF281917F8009009F05F
:1037B0007F0000FB0A664FEACA1A641C09F0800009
:1037C0000028F1D13019054431195098401A509011
:1037D0000124A246002650980028E1D1054606465D
:1037E00000BF00BF4C902FE000BF281917F80090D1
:1037F00009F07F0000FB0A664FEACA1A641C09F050
:1038000080000028F1D1601C2844395C6019385CC4
:1038100001EB002000F1020BA6EB0B004E902819E3
:1038200058444D904D98391801A84E9AFDF788F8E4
:1038300001A84E99FFF7A2FB301905440124A246C6
:1038400000264C98401C4C904F994C988842CBDBFA
:1038500051B0BDE8F08F000010B5C02004490870D9
:10386000002048700221024800F080FD10BD0000D9
:10387000982000202DE9F04705468846164601208D
:10388000334908602846FCF7F1FF801C3149086085
:1038900031480660084600682F49096844183020FE
:1038A0002E49087000BF2046E11704EB5161C91191
:1038B000A4EBC117E11704EB5161CC11002C01DD21
:1038C00047F080072548224A12688754204800683C
:1038D000401C1F490860002CE5DC2846FCF7C6FFA9
:1038E000C0F307211D4A1A48006811542846FCF706
:1038F000BDFFC1B2194A16480068401C1154284641
:10390000FCF7B4FF8146154A11490968891C501813
:103910004A462946FDF714F82846FCF7A7FF0C494C
:103920000968891C08440D4900EB010932464146EB
:103930004846FDF705F806480068064A1268104434
:10394000054A12688118054800F010FDBDE8F087AF
:1039500044000020480000204C0000209820002057
:1039600070B504460D4602201F4908601F490860D3
:103970002046FCF77BFFC01C1D49086082201D49C2
:1039800008701A4800781A4909780844194948709B
:10399000002088700120C8702046FCF767FF000AED
:1039A000144908712046FCF761FF1249487120460E
:1039B000FCF75CFF0646324621460E48801DFCF7A8
:1039C000BFFF2046FCF752FF801D0A490D540648F0
:1039D0000068064A12681044054A126881180548B2
:1039E00000F0C4FC70BD000044000020480000202E
:1039F0004C000020982000207047704770B50021CF
:103A000000230F22C47804B3154C246804F4E06446
:103A1000C4F5E064210AC1F10403CA40447804FA01
:103A200003F184781440214309010E4C0678A15516
:103A3000047804F01F050124AC4005786D11AD0039
:103A400005F1E025C5F8004109E0047804F01F0500
:103A50000124AC40044D0678761145F8264070BD2F
:103A60000CED00E000E400E080E100E002490143E9
:103A7000024A1160704700000000FA050CED00E0FA
:103A80007047000029B1064AD2690243044BDA614B
:103A900004E0034AD2698243014BDA6170470000B7
:103AA0000010024029B1064A12690243044B1A6110
:103AB00004E0034A12698243014B1A617047000017
:103AC0000010024029B1064A92690243044B9A61F0
:103AD00004E0034A92698243014B9A6170470000F7
:103AE0000010024029B1064AD2680243044BDA6052
:103AF00004E0034AD2688243014BDA607047000059
:103B00000010024030B500210022002400232D4D7A
:103B10006D6805F00C0121B1042905D0082923D1D5
:103B200005E0294D056022E0274D05601FE0254D89
:103B30006D6805F47012234D6D6805F4803402251C
:103B400005EB92421CB9214D554305600BE01D4D1C
:103B50006D6805F400351DB11C4D5543056002E04C
:103B6000194D5543056002E0174D056000BF00BFC9
:103B7000144D6D6805F0F0010909154D6B5C056881
:103B8000DD4045600F4D6D6805F4E061090A104D98
:103B90006B5C4568DD4085600A4D6D6805F46051D9
:103BA000C90A0B4D6B5C4568DD40C560054D6D680D
:103BB00005F44041890B074D6B5CC568B5FBF3F517
:103BC000056130BD0010024000127A0000093D007E
:103BD0006A0000207A000020704710B500F002F85B
:103BE00010BD00000CB50020019000903348006823
:103BF00040F480303149086000BF3048006800F46C
:103C0000003000900198401C0190009818B901986C
:103C1000B0F5A06FF1D12948006800F4003010B170
:103C20000120009001E0002000900098012843D17D
:103C30002348006840F010002149086008460068E9
:103C400020F0030008600846006840F002000860A9
:103C50001A48406819494860084640684860084664
:103C6000406840F4806048600846406820F47C105A
:103C700048600846406840F4E8104860084600681C
:103C800040F08070086000BF0C48006800F00070D1
:103C90000028F9D00948406820F00300074948602F
:103CA0000846406840F00200486000BF0348406892
:103CB00000F00C000828F9D10CBD000000100240F3
:103CC00000200240042808D14FF0E021096941F0AA
:103CD00004014FF0E022116107E04FF0E021096993
:103CE00021F004014FF0E02211617047704700009D
:103CF00010B51348006840F00100114908600846FB
:103D00004068104908400E494860084600680E495E
:103D100008400B4908600846006820F480200860CD
:103D20000846406820F4FE0048604FF41F00886099
:103D3000FFF753FF4FF000600449086010BD00001A
:103D4000001002400000FFF8FFFFF6FE08ED00E063
:103D50007FB505460C464FF4A060FFF787FE0121B2
:103D6000C802FFF7AFFE174800F044F9ADF808505D
:103D7000ADF8044001208DF80C000020ADF80600DD
:103D8000ADF80A0001A90F4800F09EFA01210D4884
:103D900000F021F9012211460A4800F030FA1920FA
:103DA0008DF8000003208DF8010001208DF802003D
:103DB0008DF803006846FFF721FE0121014800F05D
:103DC0000DF97FBD002C014010B501211D4800F008
:103DD00005FA002834D01C481C4902681C480068B9
:103DE000801CFCF7ADFD18480088000A18490968D6
:103DF000087015480078164909684870144800682A
:103E000000F5967012490860084600681149096873
:103E1000884202D110480E49086000200A49086013
:103E200000210E4800F04DFA0021064800F0D6F8B7
:103E30000021044800F045FA0121024800F0CBF8C7
:103E400010BD0000002C014008000020800100206F
:103E5000100000201800002080090020000400400D
:103E600010B50121880700F0B9F918B101218807C0
:103E700000F0B1F810BD00001FB54FF4A060FFF7CF
:103E8000F5FD01210220FFF7FDFD184800F0B2F812
:103E900044F61F60ADF8080041F61F40ADF804007D
:103EA0000020ADF80600ADF80A0001A90F4800F0A7
:103EB0000BFA01210D4800F08EF8012211460B4843
:103EC00000F09DF90121094800F088F81D208DF8C7
:103ED000000001208DF8010000208DF80200012073
:103EE0008DF803006846FFF789FD1FBD0004004000
:103EF0001FB54FF4A060FFF7B9FD01210220FFF7C5
:103F0000C1FD184800F076F84EF65F20ADF80800C5
:103F100048F69F40ADF804000020ADF80600ADF86B
:103F20000A0001A90F4800F0CFF901210D4800F067
:103F300052F8012211460B4800F061F901210948AD
:103F400000F04CF81D208DF8000002208DF80100D3
:103F500001208DF802008DF803006846FFF74EFD42
:103F60001FBD00000004004010B50121164800F0FC
:103F700035F938B315480078062819D2DFE800F083
:103F800003060B0C0D10FFF767FC11E0FFF774FF41
:103F9000FFF762FC0CE000BF00BFFFF75DFC07E02D
:103FA00000200B4908700021074800F017F800BFF7
:103FB00000BF06480078401C0449087001210248EF
:103FC00000F009F810BD000000040040500000207F
:103FD000510000207047CA430282704721B1028815
:103FE00042F00102028004E002884FF6FE731A409C
:103FF0000280704710B504466848844208D1012108
:10400000C014FFF76FFD0021E014FFF76BFDC4E063
:10401000B4F1804F08D101210846FFF743FD00218C
:104020000120FFF73FFDB8E05D48844208D101213F
:104030000220FFF737FD00210220FFF733FDACE03F
:104040005848844208D101210420FFF72BFD0021AC
:104050000420FFF727FDA0E05348844208D1012146
:104060000820FFF71FFD00210820FFF71BFD94E04B
:104070004E48844208D101211020FFF713FD002192
:104080001020FFF70FFD88E04948844208D1012144
:104090002020FFF707FD00212020FFF703FD7CE033
:1040A0004448844208D101214014FFF71BFD002140
:1040B0006014FFF717FD70E03F48844209D10121E9
:1040C000C804FFF70FFD00214FF40020FFF70AFDA1
:1040D00063E03A48844209D101210805FFF702FD57
:1040E00000214FF48010FFF7FDFC56E03448844275
:1040F00009D101214805FFF7F5FC00214FF400101C
:10410000FFF7F0FC49E02F48844208D1012140200C
:10411000FFF7C8FC00214020FFF7C4FC3DE02A481F
:10412000844208D101218020FFF7BCFC00218020BF
:10413000FFF7B8FC31E02548844208D10121801501
:10414000FFF7B0FC0021A015FFF7ACFC25E02048EC
:10415000844209D101210804FFF7C4FC00214FF477
:104160008030FFF7BFFC18E01A48844209D10121D2
:104170004804FFF7B7FC00214FF40030FFF7B2FC12
:104180000BE01548844208D101218804FFF7AAFCFE
:1041900000214FF48020FFF7A5FC10BD002C01404A
:1041A0000004004000080040000C004000100040E7
:1041B0000014004000340140004C01400050014018
:1041C0000054014000180040001C00400020004046
:1041D00000400140004401400048014030B5024623
:1041E000002000230024158A05EA0103958905EAC9
:1041F000010413B10CB1012000E0002030BD1AB160
:1042000083890B43838102E083898B4383817047D9
:1042100070B5002400220023058C4FF6FF66354060
:104220000584028C8388848B4FF68F752C404FF663
:10423000FC752C400D882C434FF6FF552A400D8904
:104240004FF6FF7606EA05252A434D8806EA05253E
:104250002A43154DA84202D0144DA8421DD14FF259
:10426000FF752A404D894FF6FF7606EA05252A4359
:104270004FF6FF352A408D8806EA05252A434EF67B
:10428000FF752B404DF6FF752B408D8906EA05150D
:104290002B43CD8906EA05152B4383808483CD8883
:1042A0008587028470BD0000002C0140003401406D
:1042B0000A460021818B4FF6F77319401143818321
:1042C0007047818470470000002202881D4B98428D
:1042D0000ED01D4B98420BD0B0F1804F08D01B4B35
:1042E000984205D01A4B984202D01A4B984204D1FA
:1042F0004FF68F731A404B881A43174B984207D0DA
:10430000164B984204D04FF6FF431A40CB881A430D
:1043100002808B8883850B8803850A4B98420BD0DB
:10432000094B984208D00E4B984205D00D4B98424D
:1043300002D00D4B984201D10B7A03860123838270
:1043400070470000002C0140003401400004004090
:1043500000080040000C0040001000400014004025
:1043600000400140004401400048014070B505464E
:104370000C462246294613480068801CFCF7E0FAE8
:104380002046E11704EB1161090A0E4A1268117008
:10439000E11704EB11610912A4EB0121094A12682B
:1043A00051700848006800F5967006490860084694
:1043B000006805490968884202D10448014908603B
:1043C00070BD00001C000020240000205C0F0020B5
:1043D00010B540F22551184800F09CF858B3174822
:1043E000007880B91448001D008820B31248001DD1
:1043F00000881349134A1268885412480068401C08
:104400001049086017E00C48001D00880C490D4A4F
:10441000126888540B48006820B901210A48FFF748
:10442000DDFD03E000210848FFF74BFF0548006869
:10443000401C0449086010BD0044004051000020A9
:104440008001002008000020002C014001F40072CF
:10445000B2F5007F00D100BFCA430280704721B18E
:10446000828942F40052828104E082894DF6FF7312
:104470001A4082817047000010B5044620488442EB
:1044800009D101218803FFF72DFB00214FF4804063
:10449000FFF728FB32E01B48844209D10121480480
:1044A000FFF700FB00214FF40030FFF7FBFA25E097
:1044B0001548844209D101218804FFF7F3FA00214D
:1044C0004FF48020FFF7EEFA18E01048844209D13B
:1044D0000121C804FFF7E6FA00214FF40020FFF79E
:1044E000E1FA0BE00A48844208D101210805FFF7F0
:1044F000D9FA00214FF48010FFF7D4FA10BD000064
:10450000003801400044004000480040004C00409A
:104510000050004070B50246002400230025002012
:1045200040F66A16B14200D100BFC1F3421501F056
:104530001F03012606FA03F3012D02D196893340A9
:1045400006E0022D02D1168A334001E0968A3340FC
:104550000C12012606FA04F41688344013B10CB18B
:10456000012000E0002070BDF0B5034600240026C5
:104570000025002040F66A17B94200D100BF184656
:10458000C1F3421401F01F06012707FA06F5012CBA
:1045900001D10C3004E0022C01D1103000E01430C5
:1045A0001AB107682F43076002E00768AF4307604E
:1045B000F0BD00002DE9F04786B005460E46002408
:1045C000A24600BFA1460027B08900B100BF2F4618
:1045D0002C8A4CF6FF700440F08804432C82AC898E
:1045E0004EF6F3100440B0883189084371890843BE
:1045F0000443AC81AC8A4FF6FF400440B0890443C9
:10460000AC8201A8FFF77EFA1F48874202D1DDF88D
:1046100010A001E0DDF80CA0A88900F4004040B132
:104620000AEBCA0000EB0A1031684900B0FBF1F850
:1046300007E00AEBCA0000EB0A1031688900B0FB02
:10464000F1F86420B8FBF0F004012009642101FBBB
:104650001089A88900F4004040B1322000EBC90065
:10466000B0FBF1F000F00700044308E0322000EB5B
:1046700009106421B0FBF1F000F00F0004432C811D
:1046800006B0BDE8F0870000003801407047000028
:1046900010B586B0044601218803FFF713FA012103
:1046A0000420FFF70FFA4FF40070ADF81400032058
:1046B0008DF8160018208DF8170005A91248FEF78E
:1046C0004BFD4FF48060ADF8140004208DF8170006
:1046D00005A90D48FEF740FD01940020ADF8080043
:1046E000ADF80A00ADF80C00ADF810000820ADF8E8
:1046F0000E0001A90548FFF75DFF01210348FFF700
:10470000AEFE06B010BD00000008014000380140B8
:1047100010B586B004464FF4A060FFF7A7F9012159
:104720004804FFF7AFF901210420FFF7CBF9244833
:10473000FFF7A2FE0420ADF8140003208DF8160048
:1047400018208DF8170005A91E48FEF705FD082062
:10475000ADF8140004208DF8170005A91948FEF7DC
:10476000FBFC01940020ADF80800ADF80A00ADF89C
:104770000C00ADF810000C20ADF80E0001A9104897
:10478000FFF718FF20210E48FFF760FE012240F2DC
:1047900025510B48FFF7E8FE26208DF80000002089
:1047A0008DF801008DF8020001208DF803006846A5
:1047B000FFF724F901210248FFF751FE06B010BDB2
:1047C000004400400008014010B569A002F0FAF969
:1047D000322000F085FB20B169A002F0F3F901203E
:1047E00010BD6DA002F0EEF96EA002F0EBF93221DF
:1047F00071A000F0C7FB20B172A002F0E3F9022023
:10480000EEE777A002F0DEF97A48007800281FD1A1
:1048100079A002F0D7F932217CA000F0B3FB20B1DF
:104820007EA002F0CFF90320DAE784A002F0CAF9F3
:1048300087A002F0C7F91E2000F004FB20B189A078
:1048400002F0C0F90420CBE78DA002F0BBF95DE0D7
:104850004FF480618F48FEF70AFD002847D18EA0F3
:1048600002F0B0F9322191A000F08CFB20B193A0AE
:1048700002F0A8F90320B3E798A002F0A3F99CA0E6
:1048800002F0A0F93221A0A000F07CFB20B1A3A08F
:1048900002F098F90420A3E7A8A002F093F9ADA0D4
:1048A00002F090F93C2000F0A7FB20B1AFA002F08D
:1048B00089F9052094E7B4A002F084F975480C301A
:1048C000006820F0800073490C310860B2A002F04B
:1048D00079F93221B6A000F055FB20B1B8A002F062
:1048E00071F906207CE7BEA002F06CF90EE0C2A0D0
:1048F00002F068F91E2000F0CBFB20B159A002F0B5
:1049000061F907206CE75EA002F05CF9BFA002F03D
:1049100059F93221C1A000F035FB20B1C3A002F04B
:1049200051F908205CE7C8A002F04CF9CAA002F0D7
:1049300049F93221CDA000F025FB20B1CEA002F034
:1049400041F909204CE7D4A002F03CF9D7A002F0CD
:1049500039F9642000F0CCF920B1D9A002F032F985
:104960000A203DE7DDA002F02DF9002038E7000025
:10497000D7BCB1B8B8B4CEBBC4A3BFE90D0A000020
:10498000B8B4CEBBCAA7B0DCA3ACD7BCB1B8D6D83C
:10499000C6F40D0A00000000B8B4CEBBB3C9B9A676
:1049A0000D0A0000D7BCB1B8C9E8D6C3535441C4FE
:1049B000A3CABD0D0A00000041542B43574D4F447C
:1049C000453D3100C9E8D6C3535441C4A3CABDCA4A
:1049D000A7B0DCA3ACD7BCB1B8D6D8C6F40D0A00DA
:1049E000C9E8D6C3535441C4A3CABDB3C9B9A60DBF
:1049F0000A0000000C000020D7BCB1B8C8A1CFFB52
:104A0000D7D4B6AFC1ACBDD30D0A000041542B437F
:104A1000574155544F434F4E4E3D3000C8A1CFFB38
:104A2000D7D4B6AFC1ACBDD3CAA7B0DCA3ACD7BC9A
:104A3000B1B8D6D8C6F40D0A00000000C8A1CFFB5B
:104A4000D7D4B6AFC1ACBDD3B3C9B9A60D0A000067
:104A5000D7BCB1B8C1ACBDD3C2B7D3C9C6F70D0A74
:104A600000000000C1ACBDD3C2B7D3C9C6F7CAA706
:104A7000B0DCA3ACD7BCB1B8D6D8C6F40D0A0000E0
:104A8000C1ACBDD3C2B7D3C9C6F7B3C9B9A60D0A65
:104A900000000000000C0140D7BCB1B8C9E8D6C383
:104AA000D7D4B6AFC1ACBDD30D0A000041542B43DF
:104AB000574155544F434F4E4E3D3100C9E8D6C380
:104AC000D7D4B6AFC1ACBDD3CAA7B0DCA3ACD7BCFA
:104AD000B1B8D6D8C6F40D0A00000000C9E8D6C3A4
:104AE000D7D4B6AFC1ACBDD3B3C9B9A60D0A0000C7
:104AF000D7BCB1B8BFAAC6F4536D617274636F6E50
:104B00006669670D0A00000041542B435753544116
:104B10005254534D4152543D33000000BFAAC6F4D5
:104B2000536D617274636F6E666967CAA7B0DCA368
:104B3000ACD7BCB1B8D6D8C6F40D0A00BFAAC6F42B
:104B4000536D617274636F6E666967B3C9B9A60D00
:104B50000A000000C7EBCAB9D3C3415050C8EDBC2E
:104B6000FEB4ABCAE4C3DCC2EB0D0A00B4ABCAE4CA
:104B7000C3DCC2EBCAA7B0DCA3ACD7BCB1B8D6D8F3
:104B8000C6F40D0A00000000B4ABCAE4C3DCC2EBFB
:104B9000B3C9B9A60D0A0000D7BCB1B8B9D8B1D510
:104BA000536D617274636F6E6669670D0A00000071
:104BB00041542B435753544F50534D4152540000CE
:104BC000B9D8B1D5536D617274636F6E666967CA87
:104BD000A7B0DCA3ACD7BCB1B8D6D8C6F40D0A00D8
:104BE000B9D8B1D5536D617274636F6E666967B37E
:104BF000C9B9A60D0A000000B5C8B4FDC1ACBDD34B
:104C0000C2B7D3C9C6F70D0A00000000D7BCB1B8BF
:104C1000C9E8D6C3CDB8B4AB0D0A000041542B434C
:104C200049504D4F44453D3100000000C9E8D6C30E
:104C3000CDB8B4ABCAA7B0DCA3ACD7BCB1B8D6D89A
:104C4000C6F40D0A00000000C9E8D6C3CDB8B4AB65
:104C5000B3C9B9A60D0A0000D7BCB1B8B9D8B1D54F
:104C6000B6E0C2B7C1ACBDD30D0A000041542B431E
:104C700049504D55583D3000B9D8B1D5B6E0C2B70E
:104C8000C1ACBDD3CAA7B0DCA3ACD7BCB1B8D6D831
:104C9000C6F40D0A00000000B9D8B1D5B6E0C2B71D
:104CA000C1ACBDD3B3C9B9A60D0A0000D7BCB1B819
:104CB000C1ACBDD3B7FECEF1C6F70D0A00000000AF
:104CC000C1ACBDD3B7FECEF1C6F7CAA7B0DCA3AC6A
:104CD000D7BCB1B8D6D8C6F40D0A0000C1ACBDD35C
:104CE000B7FECEF1C6F7B3C9B9A60D0A00000000A1
:104CF00010B5044600202E4908604FF480612D480D
:104D0000FBF79DFE2C482D4902682DA001F0A8FF5D
:104D10001AE06420FEF770F930A12648FBF770FD19
:104D200000B115E02FA12348FBF76AFD08B101206F
:104D300010BD2EA11F48FBF763FD08B10220F7E765
:104D400021462FA001F03EFF201EA4F10104E0D176
:104D500000BF2CA001F036FF002C01DC0320E7E7A8
:104D600029A001F02FFF0020114908604FF4806155
:104D70001048FBF764FE2CA001F072FF0CE06420E9
:104D8000FEF73AF92CA10B48FBF73AFD00B107E01A
:104D900021461BA001F016FF201EA4F10104EED154
:104DA00000BF002C01DC0420C2E70020C0E70000A7
:104DB0000800002080010020400000201820002072
:104DC00041542B43495053544152543D2254435073
:104DD000222C222573222C25640D0A00434F4E4EAF
:104DE00045435400434C4F5345440000414C524509
:104DF00041445920434F4E4E454354454400000022
:104E0000256420000D0A0000C1ACBDD3B7FECEF171
:104E1000C6F7B3C9B9A6A3ACD7BCB1B8BDF8C8EB47
:104E2000CDB8B4AB0D0A000041542B434950534553
:104E30004E440D0A000000000D0A4F4B0D0A0D0AEA
:104E40003E00000010B504460020144908604FF4ED
:104E500080611348FBF7F3FD12A215A116A001F023
:104E6000FFFE0DE04FF47A70FEF7C6F818A10C486B
:104E7000FBF7C6FC00B107E0214617A001F0A2FE37
:104E8000201EA4F10104EDD100BF14A001F09AFE90
:104E9000002C01DC012010BD0020FCE708000020F0
:104EA00080010020484733313036333537352E0006
:104EB000484733313000000041542B43574A41509A
:104EC0003D222573222C222573220D0A00000000AA
:104ED0000A0D0A4F4B000000256420000D0A000057
:104EE00010B50446002201211348FEF7D6F94FF40D
:104EF000FA70FEF781F8012211460F48FEF7CDF94E
:104F00000CE06420FEF778F80CA10E48FBF778FC63
:104F100000B107E021460CA001F054FE201EA4F1D0
:104F20000104EED100BF09A001F04CFE002C01DC11
:104F3000012010BD0020FCE700080140726561649B
:104F40007900000080010020256420000D0A000087
:104F500008B501210420FEF7B5FD0120ADF80000E1
:104F600003208DF8020010208DF8030069460448E4
:104F7000FEF7F2F8012211460148FEF78EF908BD4E
:104F80000008014070B505460C4600201349086032
:104F90004FF480611248FBF752FD294611A001F041
:104FA0005FFE0CE06420FEF727F810A10C48FBF729
:104FB00027FC00B107E021460DA001F003FE201EF2
:104FC000A4F10104EED100BF0AA001F0FBFD002C0A
:104FD00001DC012070BD0020FCE70000080000207B
:104FE0008001002025730D0A000000004F4B0000D7
:104FF000256420000D0A000010B5044600201C495D
:1050000008604FF480611B48FBF719FD21E04FF465
:105010007A70FDF7F1FF18A11648FBF7F1FB00B11C
:105020001BE0214617A001F0CDFD204604EBD07116
:105030004910A4EB410131B11348006840F08000F1
:105040001149086005E01048006820F080000E4912
:105050000860201EA4F10104D9D100BF0BA001F00B
:10506000B1FD002C01DC012010BD0020FCE7000098
:105070000800002080010020636F6E6E6563746518
:1050800064000000256420000C0C01400D0A0000A3
:1050900010B504460DE04FF47A70FDF7ADFF0CA19A
:1050A0000E48FBF7ADFB00B107E021460CA001F074
:1050B00089FD201EA4F10104EDD100BF09A001F07B
:1050C00081FD002C01DC012010BD0020FCE7000068
:1050D0005749464920474F5420495000800100203D
:1050E000256420000D0A0000490050EAC12018BFC5
:1050F00004204A0D18BF40F0010040F2FF72B2EBED
:10510000515F08BF40F00200012808BF052070472A
:1051100040F2013200204FF0E04104F09BB8000063
:10512000024A0020110704F095B8000001FDFFFFBE
:1051300010B50446D1E9000100F002F8206010BD6E
:10514000F8B504460D466A4600F00EFB00987E3026
:10515000009000281EDC002213462046294603F05A
:105160004DFD17D0002140F608004FF00000064624
:105170002046294603F054FC044640F6080006EA9F
:1051800000014FF0000034F0004004BF0220FCF7A3
:105190001FFF29E00098FF2828DB002108464FF078
:1051A000000000F44006002213462046294603F082
:1051B000F5FE8CBF002501250220FCF709FF4FF00A
:1051C000FF4446B1002D0CBF4FF400004FF48000A7
:1051D000B04218BF084C042108464FF00000002DD3
:1051E00004BF84F00040F8BD2046F8BD20462946A3
:1051F000BDE8F84003F014BCFFFF7F7F10B5044604
:105200000A46D4E90003194600F005FBC4E9000191
:1052100010BD30380A2801D20120704700207047A5
:1052200070B505460C46002614B10DB1A54201D15A
:10523000002070BDAE6826B9AC60646000202060BC
:1052400007E0706828B12146706801F071FCA86819
:1052500044600120EDE72DE9F04705460E4614466F
:105260001F46DDF820904FF00008C2461DB116B170
:105270000CB1A54202D10020BDE8F087B9F1000FC2
:1052800007D0304600F0D8F98046E06840F4007A54
:105290000CE03946304600F08FF98046B8F1000F37
:1052A00001D10020E8E7E06820F4007AA08900F44A
:1052B000007020B9206A10B1206A79688847C4F864
:1052C0002080C4F80CA021462846FFF7A9FFD3E7A9
:1052D0000C48806940F008000A4988610A48006863
:1052E00020F07040084908600846006840F04050CF
:1052F000086005480C30006820F0800002490C313D
:105300000860704700100240000C0140014609B1DE
:10531000086808B90020704719B1D1E9012090420E
:1053200001D30846F7E702E08868401C886041B175
:10533000D1E90120904204D28A680868805C202864
:10534000F2DDD1E90120904202D18868401E8860D8
:105350000846E0E7F8B504460D4616460020044B23
:105360003246294600902046FFF775FFF8BD000041
:105370005C00002070B505460E46134800F075F835
:105380000446F4B10820E060C4E906560F4A104B09
:105390002846314603F002FE03D86FF000406061FA
:1053A0000FE000220B4B2846314603F0BDFC03D82A
:1053B0004FF00040606104E02846314603F05AFC9B
:1053C0006061204670BD00005C0000200000C0FF4E
:1053D000FFFFDF410000E0C110B5044800F045F8D0
:1053E00004460CB14020E060204610BD5C00002067
:1053F00070B50446002522E02568A08900F480707D
:1054000020B9A06810B1A068FFF7F2FFA08900F4EE
:10541000807028B9206918B10A4A20695168884704
:10542000A08900F4007028B9206A18B1054A206AE2
:105430005168884703484168204688472C46002C1D
:10544000DAD170BD5C00002002480068014949685B
:10545000084470475400002070B504460D460022F1
:105460002946204600F0AEF970BD70B504462820EC
:105470002168884705461DB128212846FBF701FB16
:10548000284670BD10B5044600221146204600F0A3
:105490006BF810BD2DE9F0478AB004460E4615465C
:1054A00098461C2103A8FBF7ECFA002700202C49A2
:1054B0000860486004B106B932E003940496002005
:1054C0000590284A07CA07AB07C32648FFF7CDFF58
:1054D000074607B924E003A801F0FEFA8246FFF769
:1054E00015FF81464946384600F012FF00B917E023
:1054F000B8F1000F0BD003A8FFF708FFDDE9041097
:10550000884203D205990398405C00B108E01DB1C0
:10551000059903980844286038460AB0BDE8F0872A
:1055200017B13846FFF764FFC4B101940020029020
:10553000DDE90410884202D20598029004E0049844
:1055400010B10498401E02901DB1DDE9010108442C
:1055500028600348DDE9011206C000BF0020DCE737
:10556000540000205C0000202DE9F04104460D4667
:10557000164614B90020BDE8F0812046FBF776F905
:10558000471C33462A4639462046FFF783FFF2E799
:1055900010B50446024A0021204600F057FF10BD16
:1055A0005C00002010B50446024841682046884748
:1055B00010BD00005C0000202DE9F04104460D46BE
:1055C0000026002714B90020BDE8F0812046FBF733
:1055D0004DF9461C30462968884707460FB9002018
:1055E000F2E7324621463846FBF7AAF93846EBE7A0
:1055F00070B504460D4604B10DB9012070BDAC4232
:1056000001D10020FAE705E0207808B90020F5E78D
:10561000641C6D1C2078FAF705FF06462878FAF717
:1056200001FF8642F0D02078FAF7FCFE0646287883
:10563000FAF7F8FE301AE1E7704700002DE9FC5F49
:1056400004460D4616461F4627F00043B24625F095
:1056500000405246CDE900402046019903F09EFCEF
:1056600003D225F00041204602E027F000413046F9
:105670008046894600220D4B4046494603F090FB88
:1056800082468B4632463B462046294603F0BCFC08
:1056900021F0004152465B46CDE9000103F044FB96
:1056A00002D80120BDE8FC9F0020FBE70000B03CD1
:1056B0002DE9F04104460D46002600270CB1206874
:1056C00010B90020BDE8F081606828B1D4E901106C
:1056D000884201D30020F5E7B5F1004F01D3002047
:1056E000F0E7A068401C05446068A84203D3A168A5
:1056F00020680844E6E7206908B10020E2E7B5F138
:10570000804F07D3B5F1004F02D26FF0004702E09F
:105710000020D7E76F00206A60B13946226A20680E
:1057200090470646DEB9E16920688847002060603E
:105730002060C7E73846A1698847064636B9E1695F
:1057400020688847002060602060BBE7A068421C9A
:1057500030462168FBF7F4F8E16920688847676004
:105760002660A0683044ADE710B5144600222260E0
:10577000114A21F000439342A8BF10BD53EA000232
:1057800008BF10BDB3F5801FA8BF226807DA362214
:1057900003F060FD6FF0350221F000432260DFF876
:1057A0001CC06FF31E510CEB23531A4441F0FF5100
:1057B00041F00051226010BD0000F07F02FCFFFFAD
:1057C0002E2070472DE9F04105460E46174600246D
:1057D00005B116B90020BDE8F081AC685FB100E00A
:1057E00024688CB1206A78B13046216AFBF770F9E1
:1057F0000028F5D108E000E024682CB13046216A89
:10580000FFF7F6FE0028F7D10CB1206A08B9002096
:10581000E1E72046DFE72DE9F04106460C4640F27D
:10582000FF75174635EA14502BD000221346304638
:1058300003F0E4F925D03A463046214603F00AFD4C
:1058400006460C4635EA145010D000221346304666
:1058500003F0D4F915D10220FCF7BAFBFFF760FC86
:105860000A46214662F31E01BDE8F0810220FCF7E2
:10587000AFFBFFF74DFC0A46214662F31E01BDE86F
:10588000F08130462146BDE8F081000030B5CBB054
:10589000044624B109496846FAF7E4FD03E00849E3
:1058A0006846FAF7DFFD6846FAF7E0FF05462A4644
:1058B000694604A0FDF7DEFF4BB030BD6C940008D4
:1058C000049400082F7379732F6131646869786CD0
:1058D0004D5256572F48472D6C696768742D3030EC
:1058E000322F7468696E672F6576656E742F7072DB
:1058F0006F70657274792F706F737400FDF775FBAC
:105900004FF4E130FEF7C4FE4FF4E130FEF700FF44
:105910004FF4E1514FF4FA70FEF71AFA472144F6BA
:105920001F6001F009F9FFF713FBFDF733FAFFF7EA
:10593000CFFCFDF70BFD37E19C480078012871D1C1
:105940009B4800689B490968884224D098480068B1
:10595000807810280CD0964800688078822803D17F
:1059600095480078012803D094480078012812D186
:105970008F48006801F054F98D48006800F5967072
:105980008B490860084600688D490968884202D141
:105990008C48874908608C4800688C4909688842AF
:1059A00072D089480068807820283CD186480068F9
:1059B000407906282ED2DFE800F0030A11181F26CE
:1059C00083A001F0FFF801207B49087029E085A041
:1059D00001F0F8F800207549087022E08CA001F071
:1059E000F1F80020714908701BE095A001F0EAF879
:1059F00000206E49087014E09BA001F0E3F800203D
:105A00006A4908700DE0A3A001F0DCF800206749A6
:105A1000087006E0A7A001F0D5F8002063490870DF
:105A200000BF45E08AE068480068807890281BD174
:105A300065480068807910B101280DD100E000BFF1
:105A4000A5A001F0BFF801205C4908700020A5491D
:105A50000870FEF74DFA06E0A3A001F0B3F80020AD
:105A60005249087000BF23E0574800688078D0286A
:105A700015D1A3A001F0A6F89A480078012804D116
:105A800000209849087013E021E09648007801282A
:105A90000EDD002093490870FEF72AFA08E04A4814
:105AA00000688078302803D147480068FDF762FE1F
:105AB0004548006800F5967043490860084600684C
:105AC00093490968884202D192483F490860924848
:105AD000006892490968884266D08F480168891C2D
